:020000040800F2
:1000000058080020350200084F3D0008B5370008A9
:100010004D3D0008731C0008D94100080000000095
:10002000000000000000000000000000673D000824
:10003000751C000800000000653D0008693D0008CF
:100040004F0200084F0200084F0200084F0200084C
:100050004F0200084F0200084F0200084F0200083C
:100060004F0200084F0200084F0200084F0200082C
:100070004F0200084F0200084F0200084F0200081C
:100080004F0200084F020008711B00084F020008D1
:100090004F0200084F0200084F0200084F020008FC
:1000A0004F0200084F0200084F0200084F020008EC
:1000B0004F0200084F0200084F0200084F020008DC
:1000C0004F0200084F0200084F0200084F020008CC
:1000D0004F0200084F0200084F020008CD410008FF
:1000E0004F0200084F0200084F02000800F002F81B
:1000F00000F090F80AA090E8000C82448344AAF132
:100100000107DA4501D100F085F8AFF2090EBAE82F
:100110000F0013F0010F18BFFB1A43F0010318473B
:100120005C4F00007C4F0000103A24BF78C878C1B3
:10013000FAD8520724BF30C830C144BF04680C60ED
:10014000704700000023002400250026103A28BF35
:1001500078C1FBD8520728BF30C148BF0B60704739
:100160006E2900F09482702900F0ED83662904F076
:10017000EB86652904F0E886672904F0E5866129A5
:1001800004F0E48603681B0A28BF41F08001692956
:1001900000F0E880642900F0E580752900F0E28035
:1001A0006F2900F07A83782900F0B983E92900F0FB
:1001B0001583E42900F01283F52900F00F83EF295D
:1001C00000F07783F82900F0B8830368DB0928BFC3
:1001D00041F08001632900F09682732900F09B8230
:1001E000E32900F09787F32900F09C8700207047EF
:1001F0001FB500F0E9FF04000020002104F08EFE8E
:10020000401C60600020002104F072FEE0601FBD11
:1002100010B510BD00F0AAFF1146FFF7E9FF04F08A
:10022000B7FB01F087F803B4FFF7F2FF03BC01F05E
:10023000CFF800000948804709480047FEE7FEE77D
:10024000FEE7FEE7FEE7FEE7FEE7FEE7FEE7FEE786
:1002500004480549054A064B70470000E53D000883
:10026000ED00000858020020580800205804002023
:10027000580400201CB50C46064B7B446946009090
:10028000204600F01EFA04460020694600F02CFAD1
:1002900020461CBD6B0400000FB41CB5084B06AA19
:1002A0007B4469460090059800F00BFA0446002054
:1002B000694600F019FA20461CBC5DF814FB0000EA
:1002C0004504000070B5044685690068C10601D583
:1002D000302600E02026C00707D070BDD4E90121F8
:1002E00030469047206A401C20626D1EF6D570BDD6
:1002F00070B5044685690078C00707D170BDD4E9A0
:10030000012120209047206A401C20626D1EF6D5F6
:1003100070BD70B50C460546012A05D028788006C8
:1003200000D5EA69002302E0012305E05B1C93424B
:1003300002D2E05C0028F9D1A869E618C01AA861C9
:10034000286A184428622846FFF7BCFF04E0D5E974
:10035000012114F8010B9047B442F8D32846FFF767
:10036000C7FF70BD2DE9F0410646002410687529CD
:10037000314616A510D000F01FF9002802DA4042DD
:1003800013A507E031688A0701D512A502E04907E5
:1003900004D511A5012401E000F017F900210A227B
:1003A00006F1240709E0B0FBF2FCB0FBF2F302FB1C
:1003B0001C00303078541846491C0028F3D12346DD
:1003C0002A463046BDE8F04100F008B900000000C0
:1003D0002D0000002B000000200000002DE9F05F40
:1003E000894604464FF0000ADFF874B1FB44C0F8B8
:1003F00020A02046E1688847002874D0252806D030
:10040000D4E901219047206A401C2062F1E70026D0
:100410005F462046E16888472028054607DB312DE6
:1004200005D2781910F8200C08B10643F1E7B0079F
:1004300001D526F00406C4F81CA00027C4F818A0B3
:100440002A2D09D0284603F0ECFE38B304EB8708C8
:10045000303DC8F8185019E059F8041B204604EB49
:1004600087029161E1688847012F054618D1E0694C
:10047000002820DA26F020061DE0D8F8180000EB4E
:10048000800005EB40003038C8F818002046E168CD
:100490008847054603F0C5FE0028EED1012F0AD09B
:1004A0002E2D08D12046E16888477F1C0546022F83
:1004B00046F02006C4DBA069002803DA404246F07B
:1004C0000106A061F00701D026F010066C2D0BD0BC
:1004D000682D09D04C2D39D06A2D35D0742D35D0EA
:1004E0007A2D33D016E038E0E1682F462046884761
:1004F000B842054609D16C2F26D04FF48060E168E0
:10050000064320468847054604E06C2F1AD04FF476
:10051000807006430DB3A5F14100192802D820359B
:1005200046F400664A462946204626604E46FFF7B6
:1005300017FE80B101280BD0F61D26F0070000F150
:10054000080956E74020E4E78020D8E70020D6E7F6
:1005500006F104094DE7284652E7206ABDE8F09FFE
:100560008D4B00004FF0000200B5134694469646AE
:10057000203922BFA0E80C50A0E80C50B1F12001B6
:10058000BFF4F7AF090728BFA0E80C5048BF0CC064
:100590005DF804EB890028BF40F8042B08BF7047C2
:1005A00048BF20F8022B11F0804F18BF00F8012B34
:1005B000704770477047704709684A0501D540B2D7
:1005C0007047C905FCD500B2704709684A0501D5D6
:1005D000C0B27047C905FCD580B270472DE9F0471D
:1005E0000D4699469246044600F1240801688806A3
:1005F00004D5E06921F01001216000E00120A8424B
:1006000001DD471B00E00027A1697A1902EB090010
:10061000081AA0612078C00602D42046FFF752FED7
:10062000002608E0D4E901211AF806009047206A64
:10063000401C761C20624E45F4DB2078C0060AD5AB
:100640002046FFF73FFE06E0D4E901213020904725
:10065000206A401C2062381EA7F10107F4DC07E085
:10066000D4E9012118F805009047206A401C206257
:10067000281EA5F10105F3DC2046FFF739FE20789E
:10068000000602D50220BDE8F0870120FBE71168D3
:100690000268006A530501D508700AE0D30501D548
:1006A000088006E0130603D5C217C1E9000200E086
:1006B000086001207047000001694A1C0261087847
:1006C000704700B58FB0CDE9013100210591054992
:1006D0007944CDE9031011466846FFF77FFE0FB05D
:1006E00000BD0000E5FFFFFF0A6802F8010B0A6089
:1006F000704710B5436913B1AFF3008001E0FFF715
:1007000008FE012010BD127800F124010A700022B9
:100710004A700122EDE711684FF0FF32E9E700006F
:100720002DE9FF5F15468A460446DFF8AC80F844A1
:100730000027D8E900103E46CDE9001010E03AF855
:1007400016106A4602A800F0F1FC411C07D021787F
:10075000890603D5E269391891420DD80744761C01
:100760002078800602D5E069B84205DDAE42E6DBBE
:100770003AF816000028E2D1A069C01BA06120460B
:10078000FFF7A0FDD8E90010CDE90010002017E028
:100790003AF818106A4602A800F0C8FCB0F1FF3F12
:1007A00081460BD000250DF1080B05E0D4E90121AD
:1007B0001BF8050090476D1C4D45F7D308F101006B
:1007C000B0428046E4DB206A384420622046FFF7CE
:1007D0008FFDBDE8FF9F00005E4800002DE9F0415D
:1007E0008046D21D22F007020025D2E90002F52939
:1007F00015A614D0011E72F1000106DA0023D0EB19
:10080000030063EB020211A608E0D8F800108B0782
:1008100001D50FA602E0490701D50EA60125114614
:10082000002408F1240704E000F098F830323A552B
:10083000641C50EA0102F7D12B463246214640465D
:10084000BDE8F041FFF7CABE000000002D00000027
:100850002B0000002000000030B4002100F124042F
:1008600008E002F00705D208303542EA4372DB089F
:100870006554491C52EA0305F3D10468002310A211
:10088000250707D5A40600D421B1C46901230DA210
:10089000641EC46130BCFFF7A1BE10B504462146FA
:1008A0001068FFF792FE02462046BDE81040002384
:1008B000D2E7D21D22F00701D1E90023CCE70000E6
:1008C0000000000030000000F0B40D46018809056A
:1008D00002D5214C7C4402E01F4C7C440E340021A4
:1008E00000F1240608E002F00F071209E75D42EA72
:1008F00003721B097754491C52EA0307F3D10278AB
:100900000023120704D5702D06D009B1022311343B
:100910002246F0BCFFF762BE01231034F8E770B541
:1009200004460D4621461068FFF74FFE0246294651
:100930002046BDE870400023C6E7D21D22F0070321
:10094000D3E90023C0E70368126843F02003036083
:100950000823C3610023B7E7C046000030B5B0F1FB
:100960000A024FEA900E71F100034EEA817EB0EB6D
:100970000E0061EB91014FEA101E4EEA017E10EB72
:100980000E0041EB11114FEA102E4EEA016E10EBF2
:100990000E0041EB11214FEA104E4EEA014E10EBD2
:1009A0000E0041EB1141401841F100014FEAD00027
:1009B00040EA41704FEAD10110EB80054FEA810413
:1009C00044EA907444EB01046D1944EB0404521B97
:1009D000A3414FF0000348BF0A3200D530BD401C90
:1009E00041F1000130BD70472DE9FF4F0C461E4616
:1009F0004FF0FF378BB0D2E90001DDF860800A903C
:100A00008A46C1F30A5505B93D46002108464FF014
:100A10000000BAF1000F00F4400005DA00EB80009E
:100A20004FF4400101EA50004FEA9059B9F1010F2B
:100A300000DDB9460A9850EA4A000ED044F610503C
:100A4000A5F2FF3545432F14B8F1000F1ED07542B3
:100A5000291E1EDDC9F100021CE0B8F1010F4FF0A4
:100A6000000001D0302103E0F24305E02154401C96
:100A7000B042FBDB30460022002121540B99C1F823
:100A80000880C1E900200FB0BDE8F08FBD1B6D1CD0
:100A9000DEE74A4600DA694206A800F0D9FB06AB59
:100AA00093E8070003AB83E8070050460A9900F07B
:100AB00096FC8DE80700A0F500501F3800900398C1
:100AC000002D0ADD42F21F014A460844002303A913
:100AD0000390684600F0FFFE09E0A0F500504A468A
:100AE0001F38002303A90390684600F009FF8DE832
:100AF00007000004000C03D04FF0FF30410800E075
:100B00001046B8F1000F03D00022009215461EE0F7
:100B1000751E05D4FFF722FF303262556D1EF9D5E0
:100B2000B3460122084302D000227F1C04E0207853
:100B3000302801D100227F1E002A099784D01DE0B1
:100B4000112D07DAFFF70AFF303262556D1C50EAAB
:100B50000102F5D1084302D00098C8B10EE000218F
:100B6000681E05E0235C625C63542254401E491CED
:100B70008142F7DBAB46A81B401E0990002004F819
:100B80000B000B98099AC0F80880C0E9002B7AE79F
:100B900011264FF0000857E72DE9F04F884604462C
:100BA000D21D22F0070191B0D1E90001CDE90A017F
:100BB00003F013FB02460B98C00F01D02D2007E075
:100BC0002068810701D52B2002E0202101EAC00026
:100BD000032A099001D0072A05DB03464146204637
:100BE00000F0F6FA0BE12078800601D5E06900E01C
:100BF0000620B8F1650F814606D0B8F1660F18D00F
:100C0000B8F1670F70D131E00020B9F1110F0090F9
:100C100001DB112301E009F101030AAA01A90CA8D3
:100C2000FFF7E2FEDDE90C70002609F101058346BD
:100C300047E001204B4600904FF000470AAA01A967
:100C40000CA8FFF7D1FEDDE90DB00C995D4600263A
:100C500010B909F101000D18B9EB050003D4C0F17A
:100C6000FF3609F10105A5EB09002BE0B9F1010FF1
:100C700001DA4FF001090020B9F1110F0090484648
:100C800001DD112300E003460AAA01A90CA8FFF721
:100C9000ABFEDDE90C704D46002683462078000748
:100CA0000AD4AB4500DA5D4601A8012D04DD4119E7
:100CB00011F8011C302907D04F4502DA17F1040F53
:100CC00004DA012082460FE06D1EEEE7002F02DC01
:100CD000ED1B3E4403E0781CA84200DD7D1CB81BE0
:100CE00000F1010A4FF000472078000703D4AA451D
:100CF00001DB4FF0FF3A0021B7F1004F0DF143083F
:100D00008DF8431024D002202B23002F01DA7F42DC
:100D10002D230A21021EA0F1010000DC5FB197FB28
:100D2000F1FC97FBF1F201FB1C7C17460CF1300C37
:100D300008F801CDEEE7A8F101000370218809054C
:100D400001D5452100E06521A0F1010800F8011C52
:100D500009980FA9A1EB0807FF1D00B10120411957
:100D600001EBEA70A1693844081A401EA06120789E
:100D7000C00602D42046FFF7A5FA099828B1D4E9A5
:100D800001219047206A401C20622078C00622D5AD
:100D90002046FFF797FA1EE0002E04DBB34502DD84
:100DA00001A8805D00E03020D4E901219047206A4D
:100DB000401C2062761CAAF101005FEA000A0AD1F9
:100DC00000F002FAC0680168405CD4E90121904754
:100DD000206A401C2062281EA5F10105DCDC07E02A
:100DE000D4E9012118F8010B9047206A401C2062C9
:100DF000381EA7F10107F3DC2046FFF779FA03203C
:100E000011B041E62DE9F04F04460D46D21D22F007
:100E1000070089B0D0E900974846394603F0DDF96C
:100E20000246F80F01D02D2307E02068810701D585
:100E30002B2302E0202101EAC0038DF820300BB102
:100E4000012000E00020032A824601D0072A04DBAB
:100E50002946204600F0BCF93FE12078800601D405
:100E60000D2500E0E569C7F30A560D2D49DA00218A
:100E70004FEA175B08464FF00000002F00F44000D7
:100E800007DA00EB80004FF4400100EBD07001EA7C
:100E900060008115012901DD4FF0FF3100224FEA8A
:100EA000850CBCF1180F06D31346ACF118004FF0B7
:100EB0008052C24003E04FF4801323FA0CF30CF18C
:100EC0000C0CBCF1200F04D3ACF1200C09FA0CF08F
:100ED00001E007FA0CF000294FF0004801DD18B9D5
:100EE0000FE00ED140450CD319EB02095F4121B947
:100EF000404502D19F4329EA0209BBEB175F00D0AE
:100F0000761C2088000502D57B48784402E07A48A8
:100F10007844193808AA302302F80A30037C0AF111
:100F20000101002E0AF1020A53546A4602DC4FF016
:100F3000300101E04FF031014FF001088DF8001051
:100F400002D0A6F2FF3603E059EA470100D06B4E0B
:100F5000002D02DC2178090704D54FF002082E216C
:100F60008DF80110C44600210BE0C7F303433F0195
:100F7000C35C491C6D1E02F80830052908F1010800
:100F800001DA002DF1DC00210CE000EB1973491CA3
:100F90001B786D1E082902F808304FEA091908F17C
:100FA000010801DA002DF0DC21688B0602D516E07D
:100FB000A8F10108E04505DD02EB080313F8013C48
:100FC000302BF5D0B8F1000F09DD02EB080313F860
:100FD000013C2E2B03D1090701D4A8F10108002DF3
:100FE00005DD3E2102F808106D1E08F10108407C65
:100FF000002E02F8080008F1010804DA2D207642DC
:1010000002F8080002E02B2002F808000A214FF441
:101010007A70864208F101080BDB96FBF0F330335F
:1010200002F8083096FBF0F308F1010800FB1366A4
:1010300001E0642E0CDB642096FBF0F3303302F801
:10104000083096FBF0F308F1010800FB136601E09D
:101050000A2E06DB96FBF1F0303002F8080008F1AA
:10106000010896FBF1F001FB1060303002F8080037
:10107000A16908F1010808EB050202EB0A00081A51
:10108000A0612078C00602D42046FFF71BF9216A30
:1010900008AE01EB0A00206204E0D4E9012116F851
:1010A000010B9047BAF1010AF7D22078C00602D5A9
:1010B0002046FFF707F96E4609E016F8010B3E28B7
:1010C0000FD0D4E901219047206A401C2062B8F17A
:1010D0000108F2D22046FFF70BF909B00320BDE862
:1010E000F08F206A2844206203E0D4E901213020F7
:1010F00090476D1EEBD3F8E7C540000002FCFFFFF0
:1011000010B5436913B1AFF3008001E0FFF708FBAE
:10111000012010BD128800F1240182840022C284C3
:101120000122EDE711684FF0FF32E9E770B516468E
:101130000C46054600F040F8036893F801010128C9
:1011400006D0FF2C0FD8185D68B101202C7070BD3F
:10115000D3F807013246214603F207130344284619
:10116000BDE8704018474FF0FF3070BD754600F085
:10117000EBF8AE4605006946534620F00700854669
:1011800018B020B5FFF764F8BDE820404FF0000626
:101190004FF000074FF000084FF0000B21F007015F
:1011A000AC46ACE8C009ACE8C009ACE8C009ACE8A2
:1011B000C0098D467047000010B500F005F8001D0D
:1011C00010BD00BF593D00000048704718020020C4
:1011D0002DE9F0411F46044603260168072A01F461
:1011E000006004DB08B116A505E016A503E008B110
:1011F00015A500E015A521F010002060A069C01E13
:10120000A0610FB1401EA0612046FFF75BF84FB10F
:10121000D4E9012138469047206A401C2062C01C56
:10122000206206E0206AFAE7D4E9012115F8010BF3
:101230009047761EF8D22046FFF75AF8BDE8F081B5
:101240004E414E006E616E00494E4600696E66006A
:101250002DE9F047814616468AB0354878440DC8D6
:101260008DE80D0032487844801C03AC0DC884E83A
:101270000D0041F69B300844372190FBF1F290FBC2
:10128000F1F5A5F1800501FB12041B3C02D5644277
:10129000012000E00020DFF898A080460027FA44F3
:1012A000AAF1BE0A0EE0E0070AD03246684607EB14
:1012B000470101230AEB810100F022FB8DE80700C2
:1012C00064107F1C002CEED1194F7F44AE3F19E013
:1012D000E80715D007EB04100DF1180A90E80E008E
:1012E0008AE80E00C068F04201D198190890324691
:1012F000012306A903A800F003FB03AB83E8070062
:101300006D10641C002DE3D14FF001033246694695
:10131000B8F1000F03A802D000F0DDFA01E000F000
:10132000EFFAC9E90001C9F808200AB0BDE8F08762
:10133000043E000010B50446AFF300802046BDE82F
:101340001040FEF770BF000000487047F801002011
:101350004FF0013C50F8042B51F8043B9A4221D144
:10136000A2EB0C03934313EACC1317D150F8042BD0
:1013700051F8043B9A4215D1A2EB0C03934313EAB4
:10138000CC130BD150F8042B51F8043B9A4209D1ED
:10139000A2EB0C03934313EACC13DBD04FF0000015
:1013A000704700BFD01A01BAB1FA81F101F01801FB
:1013B00022FA01F0CB40C1F12001DBB2C0B2C01A69
:1013C0002CFA01F3D11A914311EAC311E6D1704707
:1013D00001491820ABBEFEE72600020070475FEA15
:1013E000400C08BF91F0000F4FEA8C234FEAC12256
:1013F00043EA51514FEA1C5018BF00F5F0404FEA44
:10140000300018BF41F000415FEA6C5C00F02980B9
:10141000BCF1FF3F08BF40F080407047130C06BF8F
:1014200012044FF0100C4FF0000C130E04BF120208
:101430000CF1080C130F04BF12010CF1040C930FF4
:1014400004BF92000CF1020CD30F04BF52000CF148
:10145000010C11464FF00002A0F11F00A0EB0C00A0
:10146000704711F0004F08BF704731F000413FF462
:10147000D5AF0B0C06BF09044FF0100C4FF0000C59
:101480000B0E04BF09020CF1080C0B0F04BF09017D
:101490000CF1040C8B0F04BF89000CF1020CCB0F74
:1014A00004BF49000CF1010CCCF12003A0EB0C00AF
:1014B00022FA03F302FA0CF241EA030100F10100FF
:1014C000704720F07F4C80EA030023F07F47ACEBAD
:1014D000070303F57C5300F0004003F1FF032DE9FF
:1014E00080494FEA154B09B44FEA144325EA0B4EE5
:1014F00024EA03480FF2042606EB132749083E7836
:101500005FEA320203FB0667C7F5000707FB06F632
:101510004FEA54374FEAD64606F1020607FB066C3F
:10152000CCF1005C4FEA1C472CEA074C07FB06F4A1
:101530000CFB06F504EB15464FEA961634BF002067
:101540004FF000404FEAD13706FB07FC4FEA1C4C36
:101550000CFB0BF7D21B03FB0CF761EB07010CFB39
:101560000EF7B0EB074072EB17420CFB08F734BFE5
:10157000A2EB0742B2EB074261EB17414FEA0C4482
:101580004FEA910706FB07FC4FEA1C4C0CFB0BF7DC
:10159000B0EBC74072EB573203FB0CF734BFA2EB42
:1015A000C742B2EBC74261EB57310CFB0EF7B0EB11
:1015B000C70072EB57720CFB08F734BFA2EBC702EF
:1015C000B2EBC70261EB5771039F4FEA816141EAB9
:1015D000921104EBCC044FEAD1374FEA826206FB4A
:1015E00007FC42EA90124FEA80604FEA1C4C0CFB69
:1015F0000BF7D21B03FB0CF761EB07010CFB0EF79B
:10160000B0EB074072EB17420CFB08F734BFA2EBBC
:101610000742B2EB074261EB17414FEA8C554FEAA4
:10162000910704EB9C2406FB07FC4FEA1C4C0CFBC7
:101630000BF7B0EBC74072EB573203FB0CF734BF2C
:10164000A2EBC742B2EBC74261EB57310CFB0EF77E
:10165000B0EBC70072EB57720CFB08F734BFA2EB7C
:10166000C702B2EBC70261EB577115EB4C254FEA8D
:10167000816141EA92114FEA82624FEAD13742EA30
:10168000901206FB07FC44F100044FEA80604FEA29
:101690001C4C0CFB0BF7D21B03FB0CF761EB070197
:1016A0000CFB0EF7B0EB074072EB17420CFB08F790
:1016B00034BFA2EB0742B2EB074261EB174115EBD7
:1016C0001C154FEA813141EA92414FEA823242EAE7
:1016D00090424FEA80304FEA0C7644F1000448EA29
:1016E00003434EEA0B484FF0000EB2EB080C71EBCF
:1016F000030724BF624639464EEB0E0E4FF0000B37
:101700000018524149414BEB0B0BB2EB080C71EB4B
:1017100003077BF1000B24BF624639464EEB0E0EE9
:101720004FF0000B0018524149414BEB0B0BB2EB51
:10173000080C71EB03077BF1000B24BF62463946AE
:101740004EEB0E0E51EA020718BF46F0010616EBEB
:101750000E7655F1000254F1000103D5BDE8890170
:10176000BDE80088BDE88901BDE80048B6195241CE
:1017700041EB0101A3F10103704780807F7E7D7CF6
:101780007B7A7978777676757473727171706F6E13
:101790006E6D6C6C6B6A6A696868676666656464BE
:1017A000636362616160605F5F5E5E5D5D5C5C5B48
:1017B0005B5A5A59595858575756565555555454B7
:1017C000535352525251515050504F4F4F4E4E4D15
:1017D0004D4D4C4C4C4B4B4B4A4A4A494949484861
:1017E00048474747474646464545454444444443A1
:1017F00043434342424242414141002B9C4630D444
:1018000077002BD01CB54FEA370703B44FF0100018
:101810004FF01001BAF1000F06D0BCF1000FDCBF91
:1018200040F0080040F008014FF000000FBCBDE898
:1018300010400BF1010BBBF1010F08BF5FEA170766
:1018400022BF12F1010211F101014FF0004143F1F9
:10185000000300F0004043EA00007047F9D3570846
:10186000D0E746EA064613F1400F4FEA16461FDD61
:1018700013F1200FDFBF16430A46002120335B42DD
:10188000BED0C3F1200746EA064602FA07F74FEA40
:10189000164646EA0706C3F1200722FA03F201FAC8
:1018A00007F721FA03F14FF0000342EA0702A7E726
:1018B00046EA020646EA06464FEA164646EA0106A8
:1018C000BCBF46EA0646360C4FF000034FF000025C
:1018D0004FF0000194E72DE9804C9A46934670B48E
:1018E00091E8380007C831EA400C48BF34EA430C9D
:1018F00003D5FFF7E6FDFFF780FFF0BCBDE8008CE5
:101900002DE9804C9A46934670B491E8380007C898
:1019100010F0804F08BF13F0804F03D100F005F89E
:10192000FFF76BFFF0BCBDE8008C20F07F4780EA3A
:10193000030023F07F4C07EB0C03A3F57C5300F06E
:101940000040A3F1FE0392F0000F00F0B38095F089
:10195000000F00F077802DE901494FEA11404FEA6E
:10196000144621EA004800FB06FC24EA064708FB6F
:1019700006F607FB08F800FB07F718EB06484CEBE8
:10198000164C4FEA124B18EB07484FEA15464CEB42
:10199000174022EA0B4E0BFB06FC25EA06470EFB1E
:1019A00006F607FB0EFE0BFB07F71EEB064E4CEB95
:1019B000164C4FF000061EEB074E4CEB174B18EB86
:1019C0000B0840F1000018EB0E0B58EB000840F13B
:1019D00000008F1A4FF000013CBFC943661B14BFC3
:1019E000B5EB040C00213CBFC943F61B4FEA17447A
:1019F0004EEA8E0E27EA04454FEA1C4704FB0762B5
:101A00002CEA074C05FB07F70CFB05F604FB0CFC66
:101A100016EB074642EB174216EB0C4642EB1C4214
:101A20001BEB060658EB0202414146EA9E0601D531
:101A3000BDE80189B619524141EB0101A3F101034F
:101A4000BDE801894FEA14454FEA114724EA0546EB
:101A500021EA074C05FB07F406FB07F70CFB06F130
:101A600005FB0CFC11EB074144EB17444FEA12470E
:101A700011EB0C4144EB1C4422EA074C05FB07F236
:101A800006FB07F70CFB06F605FB0CFC16EB0746FE
:101A900042EB174216EB0C4642EB1C456A1854F118
:101AA000000148BF7047B619524141EB0101A3F153
:101AB0000103704795F0000F37D04FEA11424FEA0B
:101AC000144721EA024624EA074C02FB07F106FB11
:101AD00007F70CFB06F402FB0CFC14EB074441EB8C
:101AE00017414FEA154714EB0C4441EB1C4125EA22
:101AF000074C02FB07F506FB07F70CFB06F602FB9B
:101B00000CFC16EB074645EB174516EB0C4645EB70
:101B10001C42121951F1000148BF7047B6195241D9
:101B200041EB0101A3F1010370474FEA14454FEA6D
:101B3000114724EA054621EA074C05FB07F106FB9D
:101B400007F70CFB06F24FF0000605FB0CFC12EB4E
:101B5000074241EB174112EB0C4251EB1C4148BFCD
:101B60007047921841EB0101A3F101037047000097
:101B700010B5044800F033F9BDE81040024800F009
:101B80002EB900004C0000207C00002070B50446F7
:101B900000688168C943C90717D1816821F0010134
:101BA000816000F055FC05460AE000BF00F050FCE3
:101BB000401B022804D920688068C043C00706D0B3
:101BC00020688068C043C007F0D0002070BDA06AC4
:101BD00040F01000A062E06A40F00100E0620120E5
:101BE00070BD0000F8B500260446009600688168C4
:101BF000C943C9072DD0816841F0010181601648B1
:101C000016490068B0FBF1F000E0401E009000288B
:101C1000FBD100F01DFC054616E000BF00F018FCEB
:101C2000401B022810D920688068C043C0070BD031
:101C3000A06A40F01000A062E06A40F00100E0629B
:101C400084F824600120F8BD20688068C043C00784
:101C5000E4D10020F8BD00000C00002040420F003D
:101C600000F00F01000900EB800001EB4000C0B262
:101C70007047FEE770470A21B0FBF1F201FB120248
:101C8000B0FBF1F042EA0010C0B2704770470000AC
:101C9000F8B50024009490F824202546012A12D09B
:101CA000012280F824204A681F23072A0DD20668E3
:101CB000776B521E02EB820293409F430B68934066
:101CC0001F43776319E00220F8BD06680D2A0AD287
:101CD000376BD21F02EB820293409F430B68934005
:101CE0001F43376309E0F76A0D3A02EB8202934023
:101CF0009F430B6893401F43F7620A6807230668F7
:101D00000A2A0AD3F7680A3A02EB420293409F4339
:101D10008B6893401F43F76008E0376902EB42028B
:101D200093409F438B6893401F4337610A68102A92
:101D300001D0112A20D1124B02689A4217D1936820
:101D40001B0219D4936843F40003936009681029B7
:101D500012D10C490C4A0968B1FBF2F101EB810187
:101D6000490000E0491E00910029FBD104E0816A8E
:101D700041F020018162012480F824502046F8BD02
:101D8000002401400C00002040420F0070B50F49B4
:101D900005460068096801260D4C88420BD128468B
:101DA00000F01AF840F6D861A062884201D9A67105
:101DB00001E00020A071074928680968884204D121
:101DC000284600F009F8E062E67170BD4C00002082
:101DD000140000207C0000200068C06C704710B523
:101DE000044600684168890626D50168890723D51D
:101DF000A16AC90603D4A16A41F40071A162816895
:101E0000C1F34241072910D1217B71B9416821F00A
:101E100020014160A06A20F48070A062A06AC00422
:101E200003D4A06A40F00100A0622046FFF7AEFF95
:101E300021686FF0120008602068416809062ED5FD
:101E4000016849072BD5A16AC90603D4A16A41F4E8
:101E50000051A1628168C1F30231072909D04168AC
:101E6000490515D48168C1F34241072910D1217B6E
:101E700071B9416821F080014160A06A20F480506E
:101E8000A062A06AC00503D4A06A40F00100A0626D
:101E90002046FFF7FBFE21686FF00C000860206809
:101EA000416849060DD50068C0070AD0A06A40F411
:101EB0008030A062204600F093F821686FF00100A6
:101EC000086010BD2DE9F0414FF0000704003D46C9
:101ED0007ED0A06A002628B9E66284F824602046F5
:101EE00000F080F82046FFF751FEA16AC90600D431
:101EF00020B1A06A40F01000A06269E0A16A21F45C
:101F0000885141F00201A1626268E169237B0A43C2
:101F100047EA43010A43A1684FF48077B94209D0E8
:101F2000012907D05FF0000194F814C0BCF1010F43
:101F300002D00AE03946F7E7F3B1A36A43F0200381
:101F4000A362E36A43F00103E3622368D3F804C0A9
:101F50002CF4694C4CEA010CC3F804C021688B686E
:101F6000DFF870C003EA0C0313438B60A168B94229
:101F70000BD0012909D00CE0DFF85CC0A3690CEBA1
:101F800043330B4343F40061DFE7218A0D05A5F5D8
:101F900080152168CB6A23F470032B43CB62216840
:101FA00089680E4B1940914208D1E662A16A21F07E
:101FB000020141F00101A162BDE8F081A06A20F0B8
:101FC000020040F01000A062E06A40F00100E06210
:101FD0000120F1E7FDF7E1FF00E0FFFFFE0E1FFF2C
:101FE0007047000010B586B0002100910191029168
:101FF00003911E4C03681E4903221E48A34211D1BF
:102000008B6943F400738B618B6903F40073049351
:102010008B6943F004038B61896901F00401049129
:10202000082113E0144CA3421DD18B6943F4806353
:102030008B618B6903F4806304938B6943F0040321
:102040008B61896901F0040104918021CDE90012BE
:10205000694600F0FBF800220121122000F00EFD7D
:10206000122000F0FDFC06B010BD0000002401406D
:1020700000100240000801400028014070B50446ED
:1020800090F8240001280DD0012084F82400204677
:10209000FFF7A8FD02004FF0000005D084F82400EF
:1020A000104670BD022070BDA16A40F601639943DD
:1020B00041F48071A162224D23682249AB4218D1BC
:1020C0000E6816F4702F14D0A66A46F48016A66225
:1020D0000E68760505D5A66A26F4005646F48056A5
:1020E000A662A66AF6040AD5E66A26F00606E66245
:1020F00006E0A66A26F48016A6625E68E9E7E0625A
:1021000084F824006FF0020018602068436843F0F0
:102110002003436020688368C3F34243072B05D143
:10212000A84208D1096811F4702F04D0816841F4E5
:1021300080118160B4E7816841F4A001F9E70000F3
:10214000002801400424014010B590F8211000221D
:10215000022905D00421816380F82020012010BDD0
:1021600001680B6823F00E030B6001680B6823F015
:1021700001030B6090F84030C46B012101FA03F3B6
:10218000636080F8211080F82020104610BD000008
:1021900010B590F821100024022903D00421816396
:1021A00001243DE001680A6822F00E020A6001681D
:1021B0000A6822F001020A601A4A0168914201D1BC
:1021C000012121E0174A1432914201D110211BE074
:1021D000144A2832914201D1891515E0114A3C3246
:1021E000914201D189140FE00E4A5032914202D13E
:1021F0004FF4803108E00B4A6432914202D14FF42F
:10220000801101E04FF08071064A083A51600121C7
:1022100080F82110002180F82010416B01B188471F
:10222000204610BD0800024070B5044600F010F9C9
:102230000546601C02D004480078044400F008F908
:10224000401BA042FAD370BD000000202DE9F84FDA
:10225000DFF8B891002409F1040A0AF1040B2346BF
:102260000F270BF1040EC9E00125A5402A40AA4220
:102270007DD1674ED1F804C0ACEB0608B44532D02E
:1022800014DCBCF1030F3AD009DCBCF1000F2AD0FA
:10229000BCF1010F1CD0BCF1020F31D11DE0BCF12B
:1022A000110F17D0BCF1120F2AD119E0B8F5881F11
:1022B00019D006DCB8F5803F15D0B8F5801F1FD1C6
:1022C00011E0B8F5001F0ED0B8F5041F18D10AE0D0
:1022D000CB6815E0CB681B1D12E0CB6808330FE01C
:1022E000CB680C330CE08B682BB1012B4FF008034B
:1022F00003D0456104E0042302E0056100E000230F
:10230000FF2A01D8064601E000F104064FEA8405E1
:1023100001D9A5F12005D6F8008007FA05FC28EAC6
:102320000C0803FA05F548EA0508C6F800804D6870
:10233000ED0062D5374DAE6946F00106AE61AD697C
:1023400024F0030605F001050095334D06EB050C5E
:10235000DCF80850A607360F07FA06F825EA080544
:10236000DFF8B880404503D14FF0000817E044E0A3
:10237000DFF8AC80404502D14FF001080FE0DFF8F4
:10238000A480404502D14FF0020808E0DFF89880B1
:10239000404502D14FF0030801E04FF0040808FA6D
:1023A00006F848EA0508CCF808804D68D9F80060BE
:1023B000ED034D4601D5164300E096432E604D686F
:1023C000DAF80060AD03554601D5164300E09643A8
:1023D0002E604D68DBF80060ED025D4601D51643C6
:1023E00000E096432E604D68DEF80060AD02754651
:1023F00001D5164300E096432E60641C0D682A4602
:10240000E5407FF431AFBDE8F88F000000040140E3
:1024100000001110001002400000014000080140BF
:10242000000C014000100140001401408068084089
:1024300000D001207047C26821EA02030A4043EA43
:102440000241016170470AB1016170470904FBE76D
:1024500001488068704700000000002070B504004B
:1024600025D094F83D00002520B984F83C50204642
:1024700000F070FA242084F83D002068016821F003
:10248000010101602068016841F400410160206899
:10249000016821F40041016000F02EFC4D4A6168A2
:1024A000914201D84C4900E04C49884201D20120B8
:1024B00070BD4B492368B0FBF1F15E6826F03F0622
:1024C0000E435E606368934206D94FF49673594396
:1024D0004FF47A73B1FBF3F12368491C1E6A26F0AE
:1024E0003F06314319626168914210D84900401E8D
:1024F000B0FBF1F2521CC2F30B02042A01D20420F9
:1025000022E0B0FBF1F0401CC0F30B001CE0A2681D
:10251000F2B301EBC10303EB0116431EB3FBF6F369
:102520005B1C43F480431B0549D092B301EBC1020D
:1025300002EB0111401EB0FBF1F0401CC0F30B0098
:1025400040F4804040F400402168CA694CF6FF73B3
:102550009A431043C861D4E9071001432068026818
:1025600022F0C00211430160D4E903010143206855
:10257000826848F2FF339A4311438160D4E9050130
:1025800008432168CA6822F0FF021043C86001E0D6
:102590000EE016E02068016841F001010160256449
:1025A000202084F83D00256384F83E50002070BD53
:1025B00001EB4106431EB3FBF6F35B1CB3E70120BE
:1025C000C2E701EB4101401EB0FBF1F0401CC0F33B
:1025D0000B00B7E7A086010080841E0000093D00C3
:1025E00040420F002DE9F84F0025DDF8289098466D
:1025F00017468A4604460095FFF72AFF064694F8D8
:102600003D0020287AD119230122834920460096D3
:1026100001F0D2F90028F5D194F83C0001286DD0E2
:10262000012084F83C0020680168C90703D10168D3
:1026300041F0010101602068016821F4006101603E
:10264000222084F83D00102084F83E002564676253
:10265000A4F82A80608D20857048E06233464A469F
:102660005146204601F0BEF800287DD1208DDFF8CC
:10267000B081202768B1012814D0022820680168A1
:102680001ED041F48061016020684169806900903A
:10269000B5E02068416981690091016841F40071E9
:1026A0000160ACE02068016821F48061016072B6CD
:1026B0002068416981690091016841F400710AE074
:1026C00041F40061016072B620684169816900913E
:1026D000016821F48061016062B690E0032868D847
:1026E00001280CD002284B464FF0000241462046FC
:1026F00000960FD001F060F9B0BB10E08AE03246DE
:102700004946204601F0D7F970BB20680069616A2C
:1027100008706BE001F050F930BB72B634E020680D
:10272000016821F48061016072B620680069616A05
:102730000870606A401C6062208D401E2085608D9C
:10274000401E6085374846F2A8110068B0FBF1F0E2
:10275000C0EBC00000EB80000090401E009008D04D
:1027600020684069C04300E029E040070CD500988C
:10277000F3E744F8305F6773A573206940F02000E9
:10278000206162B625731AE02068016841F4007187
:10279000016020680069616A0870606A401C6062BC
:1027A000218D491E2185618D491E618562B6216892
:1027B0001AE032464946204601F07DF910B1012069
:1027C000BDE8F88F20680069616A0870606A401C83
:1027D0006062218D491E2185618D491E61852168B8
:1027E0004A69D24352070AD409690170606A401CE1
:1027F0006062208D401E2085608D401E6085208D8A
:1028000000287FF46BAF84F83D7084F83E5084F864
:102810003C50D5E70220D3E7020010000000FFFF84
:10282000040001000C0000202DE9F84F1F469046DF
:102830008A460446DDF82890FFF70AFE054694F81C
:102840003D0020287FD119230122404920460095D0
:1028500001F0B2F8002876D194F83C00012872D03B
:10286000012084F83C0020680168C90703D1016891
:1028700041F0010101602068016821F400610160FC
:10288000212084F83D00102084F83E0000262664B4
:10289000C4F824806785608D20852D48E0622B4632
:1028A0004A465146204601F013F890B92068416924
:1028B0008069009036E02A464946204601F02EF90C
:1028C00050B1206C042804D12068016841F40071E3
:1028D00001600120BDE8F88F606A21680078086116
:1028E000606A401C6062618D491E6185218D491EB0
:1028F00089B2218522685369DB435B070BD451B150
:1029000000781061606A401C6062608D401E6085C6
:10291000208D401E20852A464946204601F026F893
:102920000028CED1208D0028C5D154F83D0B016878
:1029300041F400710160202004F81E09E6776677F3
:102940000020C7E7FFE70220C4E7000002001000F4
:102950000000FFFF10B586B00021009101910291A7
:10296000039100680F4988421AD10F4CA06940F0CA
:102970000800A061A069694600F008000490C0202A
:10298000009012200190032003900848FFF75EFC9E
:10299000E06940F40010E061E06900F40010049088
:1029A00006B010BD0054004000100240000C014071
:1029B000024881680278114481607047000000205D
:1029C000074810B5016841F010010160032000F0D4
:1029D00075F80F2000F006F800F024F8002010BD74
:1029E0000020024070B50D4D04464FF47A712878EE
:1029F000B1FBF0F00A490968B1FBF0F000F062FBAE
:102A000048B9102C07D200222146501E00F036F89B
:102A100000206C6070BD012070BD0000000000202F
:102A20000C0000200C4808B5816941F0010181616A
:102A3000816901F001010091C16941F08051C161DA
:102A4000C06900F0805000900448416821F0E061C6
:102A500041F00071416008BD0010024000000140DB
:102A6000002809DB00F01F0201219140400980008D
:102A700000F1E020C0F8001170470000F0B40E4BE8
:102A80001B680C46C3F30223C3F10705042D00D9CC
:102A90000425191D072901D2002300E0DB1E0126B1
:102AA00006FA05F1491E214099409E40761E1640C7
:102AB0003143F0BC01F0A5BB0CED00E0064900F08D
:102AC000070208684FF6FF03184040EA0220034A55
:102AD00010430860704700000CED00E00000FA05AC
:102AE0002DE9F84305460078354CC00754D0E0691D
:102AF0000026C00008D4E06940F08050E061E06941
:102B0000012600F0805000902E480168C90512D4BB
:102B10000168804641F480710160FFF799FC074627
:102B200005E000BFFFF794FCC01B642823D8D8F849
:102B30000000C005F6D5206A10F4407021D0A988A5
:102B400001F4407181421CD0206A1F49012220F407
:102B500040700A6000220A602062C00711D0FFF7AF
:102B600077FC074641F2883808E000BFFFF770FCA9
:102B7000C11B414502D90320BDE8F883206A8007C4
:102B8000F4D5206A696820F44070084320621EB1C1
:102B9000E06920F08050E0612878800705D5606802
:102BA000A96820F44040084360602878C00605D535
:102BB0006068E96820F48000084360600020DBE77B
:102BC0000010024000700040400442422DE9F047EE
:102BD0000F46050061D0434E306800F00700B84250
:102BE00009D2306820F0070038433060306800F0C8
:102BF0000700B84251D128683B4C810712D54007E5
:102C000003D5606840F4E06060602878000703D571
:102C1000606840F4605060606068A96820F0F0006F
:102C2000084360602878C00728D06868012810D061
:102C30002168022810D0890700292EDA616821F066
:102C4000030101436160FFF703FC804641F28839CC
:102C50000DE021688903EFE78901EDE7FFF7F8FB55
:102C6000A0EB0801494502D90320BDE8F087606860
:102C7000696800F00C00B0EB810FEFD1306800F014
:102C80000700B8420BD9306820F0070038433060A5
:102C9000306800F00700B84201D00120E5E728784D
:102CA000400705D56068E96820F4E060084360608B
:102CB0002878000706D56068296920F4605040EA4A
:102CC000C100606000F038F86168084AC1F3031180
:102CD000515CC8400649086006480068FFF782FE5C
:102CE0000020C2E70020024000100240504F0008C0
:102CF0000C000020040000200448054900684968D1
:102D0000044AC1F30221515CC84070470C00002006
:102D100000100240604F00080448054900684968F7
:102D2000044AC1F3C221515CC84070470C00002026
:102D300000100240604F000812A185B00FC98DE855
:102D40000F0014A0144A006804905168134801F061
:102D50000C03042B10D0082B0ED1C1F38343C903FD
:102D60001DF803000AD5516804AAC1F34041515C23
:102D70000A4A5043B0FBF1F005B070470849484398
:102D8000FAE7000002030405060708090A0B0C0D08
:102D90000E0F1010010200000010024000127A0015
:102DA00000093D002DE9F84F040070D02078C04D97
:102DB000C00749D06868C0F38100012807D068685F
:102DC000C0F38100022809D16868C00306D52868CD
:102DD000800339D560680028E7D035E06068B0F539
:102DE000803F0BD010B1B0F5A02F11D0286820F48F
:102DF00080302860286820F4802002E0286840F4B1
:102E000080302860606890B1FFF722FB06460AE038
:102E1000286840F480202860F0E700BFFFF718FB27
:102E2000801B642873D828688003F7D50CE0FFF76F
:102E30000FFB064605E000BFFFF70AFB801B642876
:102E4000F0D828688003F7D420789A4E80074FF096
:102E500001094FF0000839D5686810F00C0F07D051
:102E60006868C0F38100022809D16868C00306D4ED
:102E70002868800714D52069012808D110E020694E
:102E8000B0B1C6F80090FFF7E3FA074605E00AE1A3
:102E9000FFF7DEFAC01B0228C4D828688007F7D5E0
:102EA0002868616920F0F80040EAC10028600DE060
:102EB000C6F80080FFF7CCFA074604E0FFF7C8FA2F
:102EC000C01B022823D828688007F7D42078000781
:102ED0002CD57948A169D9B1C0F80090FFF7B8FAAC
:102EE000074604E0FFF7B4FAC01B02280FD8686A4F
:102EF0008007F7D571484FF4FA510068B0FBF1F044
:102F0000009000BF0098411E0091FAD20EE080E0D0
:102F1000C0F80080FFF79CFA074604E0FFF798FA34
:102F2000C01B022875D8686A8007F7D4207840074C
:102F300060D5E8690027C00008D4E86940F08050F7
:102F4000E861E869012700F0805000905C48016862
:102F5000C90513D40168834641F480710160FFF70D
:102F600077FA824606E000BFFFF772FAA0EB0A008C
:102F700064284ED8DBF80000C005F5D5E0680128CC
:102F80000AD008B1052813D0286A20F00100286271
:102F9000286A20F0040002E0286A40F0010028625C
:102FA000E06841F2883B98B1FFF752FA82460BE0A5
:102FB000286A40F004002862EEE700BFFFF748FAF5
:102FC000A0EB0A0159455AD8286A8007F6D50CE0CB
:102FD000FFF73EFA824605E0FFF73AFAA0EB0A0156
:102FE00059454CD8286A8007F6D41FB1E86920F00B
:102FF0008050E861E06988B36968C1F38101022902
:1030000044D00228C6F8608004D0FFF721FA0446B5
:1030100038E034E0FFF71CFA074604E0FFF718FA3F
:10302000C01B02282BD828688001F7D4206AB0F58D
:10303000803F05D16868A16820F4003008436860CB
:10304000D4E908010843696821F4741108436860F1
:10305000C6F86090FFF7FCF9044606E025E000BFE3
:10306000FFF7F6F9001B022809D828688001F7D578
:103070001BE000BFFFF7ECF9001B022802D9032078
:10308000BDE8F88F28688001F4D40EE00128F7D05D
:103090006868226A00F48031914204D1616A00F4C8
:1030A0007010884201D00120EAE70020E8E7000024
:1030B0000010024000004242800442420C00002006
:1030C0000070004010B5401EB0F1807F01D3012098
:1030D00010BD4FF0E02460610F21601701F091F8FE
:1030E0000020A06107202061002010BD70B590F87D
:1030F0003C20012A26D0012480F83C40022280F89E
:103100003D2003685A689D6822F070060A683243C1
:103110005A600D4B02689A4208D0B2F1804F05D038
:103120000A4B9A4202D00A4B9A4204D1496825F0D0
:1031300080031943916080F83D40002180F83C10E5
:10314000084670BD022070BD002C01400004004004
:103150000008004010B5040003D094F83D0010B101
:1031600007E0012010BD002084F83C00204600F05C
:103170001FF8022084F83D00211D206800F034FE75
:10318000012084F8460084F83E0084F83F0084F86B
:10319000400084F8410084F8420084F8430084F839
:1031A000440084F8450084F83D00002010BD000074
:1031B00008B500680649884208D10648C16941F04F
:1031C0000201C161C06900F00200009008BD00006A
:1031D000000400400010024070B5044690F83C0026
:1031E000012817D0012584F83C50022084F83D00C6
:1031F0002068826822F0770222F47F4282600868A9
:10320000502830D00DDC20284DD005DC98B3102894
:103210003BD148E0022070BD302844D0402834D152
:1032200039E0602828D0702806D0B0F5805F2CD017
:10323000B0F5005F29D10AE0CB68D1E9012120680F
:1032400000F015FE2068816841F0770109E0CB6845
:10325000D1E90121206800F00AFE2068816841F46C
:103260008041816011E0CA684968206800F0B4FEBE
:103270005021206807E016E0CA684968206800F01D
:10328000BCFE6021206800F0FCFD84F83D50002069
:1032900084F83C0070BDCA684968206800F09CFE54
:1032A00040212068EFE7226801461046EBE7000066
:1032B00000B585B000210091019102910391006851
:1032C0000B49884211D10B48816941F004018161A9
:1032D0008069694600F004000490402000900220BC
:1032E000019003900448FEF7B1FF05B000BD000057
:1032F00000040040001002400008014070B5044680
:1033000090F83C000D4601280AD0012084F83C00CA
:1033100042B1042A18D0082A2AD00C2A4DD139E00B
:10332000022070BD206800F0B5FD2068816941F081
:10333000080181612068816921F0040181612068B0
:1033400081692A69114311E0206800F0CBFD2068F3
:10335000816941F4006181612068816921F48061A3
:103360008161206881692A6941EA0221816124E042
:10337000206800F0E3FD2068C16941F00801C161E7
:103380002068C16921F00401C1612068C1692A690E
:10339000114311E0206800F0FDFD2068C16941F48F
:1033A0000061C1612068C16921F48061C161206848
:1033B000C1692A6941EA0221C161002084F83C0008
:1033C00070BD10B5040003D094F83D0010B107E0C3
:1033D000012010BD002084F83C00204600F01EF8BB
:1033E000022084F83D00211D206800F0FDFC012032
:1033F00084F8460084F83E0084F83F0084F84000DA
:1034000084F8410084F8420084F8430084F84400C2
:1034100084F8450084F83D00002010BD704700008E
:1034200010B50446022249B104290ED0082913D050
:1034300094F84100012816D0012010BD94F83E00F8
:103440000128F9D184F83E200FE094F83F000128CC
:10345000F2D184F83F2008E094F840000128EBD135
:1034600084F8402001E084F841200122206800F027
:10347000F1FC0F492068884203D1426C42F40042BB
:1034800042642068884208D0B0F1804F05D00949D5
:10349000884202D00849884204D1816801F00701BE
:1034A000062903D0016841F001010160002010BD30
:1034B000002C0140000400400008004070477047A5
:1034C000F8B5026804461068D168536910F00F0F10
:1034D0004FF0000553D003F0010601F49077374315
:1034E0005FD0C20705D0CA0503D5226C42F00102A5
:1034F0002264420705D5DA0703D0226C42F00202AB
:103500002264820705D5DA0703D0226C42F0040258
:103510002264020707D501F02002324303D0226C57
:1035200042F008022264226C002A34D0800604D5BE
:10353000880602D5204600F092FD20684069216C83
:10354000C0F38010090700D430B3204600F06FFDAF
:103550002068416949061BD5416921F0400141615C
:10356000A06BA8B158494163A06BFEF711FE00287B
:1035700011D0A06B416B01B0BDE8F0400847830655
:103580000FD58B060DD52046BDE8F84000F067BD8D
:103590002046FFF794FFF8BD2046FFF790FF256413
:1035A000F8BD266B2023012E52D1C60650D5CE067B
:1035B0004ED5106850680090506940062AD5A16B1E
:1035C000086840680004000CEAD0A68D8642E7D95E
:1035D000E0858869202818D0D06820F48070D060F9
:1035E0002068416921F0010141612068416921F0B1
:1035F0004001416184F83E3025632068C16821F0B4
:103600001001C160A06BFEF79FFDA08DE18D401AF7
:1036100081B219E0A08DE18D401A81B2E08D0028C1
:10362000BED00029BCD0D06820F49070D060206853
:10363000426922F00102426184F83E30256320682D
:10364000C26822F01002C2602046FFF737FFF8BDC3
:1036500005062BD50D0629D594F83D002128F6D175
:10366000A068B0F5805F01D12069B0B1206A411C2B
:103670002162216800784860E08C401E0004000C44
:10368000E084E4D12068C16821F08001C160206835
:10369000C16841F04001C160F8BD206A0088C0F3F4
:1036A00008005060206A801C2062E5E74006F3D5E0
:1036B0004806F1D5D168204621F04001D16084F858
:1036C0003D3000F076F8F8BD1F40000870B50400EA
:1036D00004D094F83D00002510B106E0012070BD33
:1036E00084F83C50204600F023F8242084F83D0064
:1036F0002068C16821F40051C160204600F00AFD35
:103700002068016921F4904101612068416921F03C
:103710002A0141612068C16841F40051C1602564FB
:10372000202084F83D0084F83E00002070BD000099
:1037300030B585B00024009401940294039400688D
:10374000184988422CD11848C16941F48021C161CF
:10375000C16901F480210491816941F0080181610E
:103760008069124D00F0080004904FF480600090D2
:10377000022001900320039069462846FEF766FD6B
:10378000E814CDE90004694628460294FEF75EFD80
:10379000002201212720FFF771F92720FFF760F9A8
:1037A00005B030BD0048004000100240000C014050
:1037B00070477047FEE701684A69D24352050FD44B
:1037C0006FF480624A61002140F8301F202242736A
:1037D0008173026942F004020261017301207047A3
:1037E000002070472DE9F84F0446C06A1E469346F4
:1037F0000D4621680A6842F480620A60082807D0F2
:10380000012805D010F5803F02D0206B112804D18B
:103810002068016841F4807101604FF001195B4636
:10382000002249462046009600F0C6F84FF4007882
:1038300040B120680068C00501D5C4F8408003206D
:10384000BDE8F88F2069DFF884A0B0F5804F0FD075
:103850000620216800EAD51747F0F00008613346DA
:103860005A460AF10601204600F0DAF858BB03E098
:10387000E8B240F001001CE02168E8B2086133467C
:103880005A465146204600F0CBF8E0B9206841691D
:1038900081690091016841F4807101605B460022FA
:1038A00049462046009600F087F80028C1D147F02D
:1038B000F1002168086133465A465146204600F01F
:1038C000AFF80028BCD00120BAE7000002000100D8
:1038D000F8B50446C06A1E460D461746082807D0AC
:1038E000012805D010F5803F02D0206B122804D1AA
:1038F0002068016841F480710160134600224FF096
:1039000001112046009600F057F840B12068006889
:10391000C00502D54FF4007020640320F8BD206973
:10392000B0F5804F0ED00620216800EAD51040F097
:10393000F000086133463A460B49204600F070F823
:1039400078B902E005F0FE0000E0E8B22168086105
:10395000054933463A46891F204600F061F80028A1
:10396000DCD00120F8BD00000800010070B516464B
:103970000D4604460DE02046FFF71DFF08B101206B
:1039800070BD681C05D0FEF763FD801BA84207D8F8
:1039900035B120684069C0434007ECD4002070BDB9
:1039A000002044F8300F20216173A073216941F099
:1039B000200121612073E2E72DE9F0471E46904681
:1039C0000D460446C1F30747DDF8209008E0701C5F
:1039D00006D0FEF73DFDA0EB0900B0420FD876B14E
:1039E0002068012F18D0806925EA00000004000C2F
:1039F00014D000214145EAD00020BDE8F087002026
:103A000044F8300F20216173A073216941F0200137
:103A1000216120730120F0E74069E5E70121E9E732
:103A20002DE9F0479A4691460E46044600254FF090
:103A30002008C1F3074725E020684069C0434005DE
:103A400014D42068016841F40071016021686FF4AA
:103A500080604861256384F83D8084F83E50206C86
:103A600040F00400206484F83C501FE0B9F1FF3FAF
:103A700008D0FEF7EDFCA0EB0A0149450CD8B9F1DE
:103A8000000F09D02068012F13D0806926EA0000BA
:103A90000004000C0BD0CFE744F8305F84F80D80B1
:103AA000A573206940F02000206125730120BDE846
:103AB000F0874069EAE72DE9F041002590460E467F
:103AC0000446202717E04069C043C0060CD454F8D0
:103AD000301B6FF01000486144F810596777A577E4
:103AE000206A2062257717E0FEF7B2FCA0EB080001
:103AF000B04208D83EB120684169C9434906E2D4C2
:103B00000020BDE8F08144F8305F6773A573206939
:103B100040F02000206125730120F2E770B51646C1
:103B20000D4604460DE02046FFF745FE08B1012092
:103B300070BD681C05D0FEF78BFC801BA84207D81F
:103B400035B120684069C0430006ECD4002070BD48
:103B5000002044F8300F20216173A073216941F0E7
:103B6000200121612073E2E73EB500211148009158
:103B700001910F4A02910260012481600473017572
:103B80004FF460220461C2614160FEF79BF908B105
:103B900072B6FEE70320CDE90004072002906946D3
:103BA0000448FEF775F8002801D072B6FEE73EBD66
:103BB000002401404C0000203EB500211148009136
:103BC00001910F4A02910260012481600473017522
:103BD0004FF460220461C2614160FEF773F908B1DD
:103BE00072B6FEE70720CDE9000402906946054859
:103BF000FEF74EF8002801D072B6FEE73EBD000089
:103C0000002801407C0000202DE9F04385B000240D
:103C100025480094019402940394816941F02001A5
:103C20008161816901F020010491816941F0040101
:103C30008161816901F004010491816941F0080109
:103C400081618069DFF8648000F008004FF48666C7
:103C50000490002231464046FEF7F5FBDFF8509015
:103C60004FF48047002239464846FEF7ECFB072018
:103C700001258DE8310069464046FEF7E7FACDE9B7
:103C800000650226CDE9024669464046FEF7DEFAA7
:103C900000970396CDE9015469464846FEF7D6FAE7
:103CA00005B0BDE8F08300000010024000080140AC
:103CB000000C014010B58EB00024079408940994BC
:103CC0000A940B941C2168460C94FCF74BFC1E488C
:103CD0001C4901604721C0E9011440F2E731C0E905
:103CE00003148461FFF736FA08B172B6FEE74FF4A9
:103CF0008050079007A91448FFF76EFA08B172B612
:103D0000FEE71148FFF75DFB08B172B6FEE70B94C2
:103D10000BA90D480C94FFF7E9F908B172B6FEE75C
:103D20006020CDE90004029400226946064804940C
:103D3000FFF7E4FA08B172B6FEE70348FFF7B8FAF6
:103D40000EB010BD0004004000010020FEE7FEE7B9
:103D500010B50C460021FFF763FB2046BDE810407C
:103D6000FEF78CB970477047FEF722BE30B593B0AE
:103D700028216846FCF7F6FB14210AA8FCF7F2FBA1
:103D8000002501200F9510951195010412958DE8DD
:103D9000230004904FF4E010CDE9081002240794AA
:103DA0006846FEF7FFFF08B172B6FEE70AA90F20CA
:103DB00081E831004FF48060CDE90D0502210AA8A9
:103DC000FEF704FF08B172B6FEE74FF40040119011
:103DD0000F940FA8FEF784FE002801D072B6FEE70C
:103DE00013B030BD70470000F0B50268164B174C99
:103DF000174D4FF08047984205D0B84203D0A042FB
:103E000001D0A84203D122F070064A68324398429A
:103E100005D0B84203D0A04201D0A84203D122F479
:103E20004074CA6822434C6922F080022243026037
:103E30008A68C2620A688262984201D10969016394
:103E400001214161F0BD0000002C01400004004050
:103E50000008004010B501F01F030121046A9940D9
:103E60008C430462016A9A401143016210BD10B58F
:103E7000846842EA032224F47F440A432243826096
:103E800010BD826822F070020A4342F0070181608F
:103E90007047000030B5026A22F001020262026A35
:103EA0004368846924F073050C682C4322F00205F2
:103EB0008A682A430A4DA8420BD122F00805CA6835
:103EC00023F440732A434D6922F004021D438B6999
:103ED0002B434360846149684163026230BD000046
:103EE000002C014030B5026A22F010020262026A20
:103EF000436884690D6824F4E64444EA05248D6827
:103F000022F0200242EA05120B4DA8420ED1CD68E4
:103F100022F0800242EA05124D6923F4406343EA2D
:103F200085038D6922F0400243EA85034360846182
:103F300049688163026230BD002C014030B5026ADD
:103F400022F480720262036A4268C46923F4007337
:103F500024F073050C682C438D6843EA05230C4D4F
:103F6000A8420ED1CD6823F4006343EA05234D69CE
:103F700022F4405242EA05128D6923F4806342EA3A
:103F800005124260C4614968C163036230BD00002C
:103F9000002C014030B5026A22F480520262046AA9
:103FA0004268C3690D6823F4E64343EA05238D683C
:103FB00024F4005444EA0534064DA84204D14D6966
:103FC00022F4804242EA85124260C361496801647A
:103FD000046230BD002C014010B5036A046A24F06D
:103FE00001040462846924F0F00444EA021423F01A
:103FF0000A020A438461026210BD10B5036A23F00D
:10400000100303628369046A23F4704343EA0232B3
:1040100024F0A00343EA01118261016210BD10B5D2
:10402000406A0021C185C184FFF749FA10BD0168CB
:10403000CA6822F49072CA6001684A6922F00102DB
:104040004A61016B012904D10168CA6822F010029B
:10405000CA60202180F83E1000210163704708B536
:1040600090F83E10222901D0022008BD82684FF44A
:1040700080539A4201D1016921B1816A9A421BD0D1
:104080004AB10AE00268816A5268C2F308020A80F3
:10409000816A891C08E0026972B10268526802F004
:1040A0007F020A70816A491C8162C18D491E090420
:1040B000090CC18503D019E002685268F1E7016874
:1040C000CA6822F02002CA600168CA6822F48072BD
:1040D000CA6001684A6922F001024A61202180F821
:1040E0003E10016B012903D0FFF762FB002008BDE1
:1040F000002101630168CA6822F01002CA600168E9
:104100000A68D20602D50A6849680091818DFFF7D6
:10411000D5F9EBE770B5044600680169E26821F45F
:104120004051114301612169A06808436169084356
:104130002168CA6841F20C639A430243CA6020684E
:104140004169A26921F44071114341611E4920680F
:10415000884202D1FEF7E0FD01E0FEF7CDFD00EB65
:10416000C00101EB0012606864218000B2FBF0F333
:10417000B3FBF1F36FF018067343B2FBF0F5B2FB3B
:10418000F0F605EB8305322303EB0515B5FBF1F5DE
:10419000B6FBF1F605F0F00505EB0615B2FBF0F6FF
:1041A000B2FBF0F0B0FBF1F06FF01802504306EBF9
:1041B000800003EB0010B0FBF1F0216800F00F006D
:1041C0002844886070BD0000003801400148FFF7B6
:1041D00077B9000048010020FEE7490050EAC120FD
:1041E00018BF04204A0D18BF40F0010040F2FF72D2
:1041F000B2EB515F08BF40F00200012808BF052064
:1042000070470907090E002804DB00F1E02080F860
:104210000014704700F00F0000F1E02080F8141D3A
:10422000704730380A2801D20120704700207047BB
:1042300070B5304C054604F130002178092957D279
:10424000DFE801F056050B56121E383D470029489D
:10425000002217212B46303003E02B4600223B2161
:10426000401C00F089FD1DE0044690F9060081B273
:10427000607900F05BFA012241B22B46201DF0E785
:1042800004462B4601220C21401D00F075FD94F9D7
:10429000060081B2607900F049FA94F90410814275
:1042A00000DD20711348303000F08CFCBDE8704018
:1042B00000F0CEBD002263212B46801DD1E70D48C2
:1042C0002B4600221721001D00F056FD2179092000
:1042D00008E008482B4600223B21401D00F04CFD21
:1042E0006179082000F05CFCBDE8704000F056BD2C
:1042F00070BD0000140000201FB5FEF7A9F8304C77
:10430000616A401AB0F5967F59D3E07890B10020E9
:10431000E07094F9053094F904202AA16846FBF76F
:10432000BBFFE07888B121782020072904D0082934
:104330000BD106E00120EBE78DF801008DF80000BD
:1043400003E08DF804008DF8030000221146204898
:1043500000F006FB1FA11E4800F0A3FA0522002171
:104360001B4800F0FDFA1DA1194800F09AFA0A2234
:104370000021174800F0F4FA1AA1154800F091FA4C
:1043800000220121124800F0EBFA12A1104800F0BF
:1043900088FA052201210E4800F0E2FA6A4613A1CC
:1043A0000B4800F07EFA0A220121094800F0D8FAF1
:1043B0000CA1074800F075FAFEF74AF860621FBDCD
:1043C00014000020253032643A25303264000000A9
:1043D000EC0100202020202020000000414C415210
:1043E0004D00000020202020202020002573000008
:1043F0000149012048617047140000200F4910B5A1
:10440000884211D1FFF7F4FF0D4800210278092AF4
:104410000AD2DFE802F005070A090C0E08100800AE
:10442000012100E00221017010BD0421FBE70521FC
:10443000F9E70621F7E70821F5E70000AC010020C5
:104440001400002010B5044600F018FB0448844214
:1044500004D1FFF7CDFF03490720087010BD00000D
:10446000AC010020140000200A4910B5884203D195
:10447000FFF7BEFF012006E006494031884204D123
:10448000FFF7B6FF0020FFF7D3FEBDE8104000F0B5
:10449000F5BA00008C0100200A4910B5884203D10A
:1044A000FFF7A6FF012006E006494031884204D10B
:1044B000FFF79EFF0020FFF7BBFEBDE8104000F0B5
:1044C000DDBA00008C0100207047000010B50648DE
:1044D00000F026F80448403800F022F80248BDE811
:1044E0001040203800F01CB8CC01002010B50A4C58
:1044F00001222146094800F06DF8084802222146B1
:10450000203800F067F8214604480422BDE8104036
:10451000403800F05FB8000000080140CC010020E6
:1045200070B50446818A0069FDF780FFA1780126F5
:10453000814204D0A070E670FDF78AFF6060E078E9
:10454000002540B1FDF784FF6168401A0F2802D3AF
:10455000A0782070E57020786178884211D070B31F
:10456000FDF776FFA168401AB0F57A7F02D82046A1
:10457000FFF744FF2046FFF7A7FF25732577207834
:104580006070207B58B1FDF763FFA168401A40F6C8
:10459000B831884203D32046FFF754FF2573207FAC
:1045A00000280BD0FDF754FFA169401AC82805D395
:1045B0002046FFF759FFFDF74BFFA06170BDFFE7F5
:1045C000267726732046FFF767FFFDF741FFA060BF
:1045D000A061D4E70123837043700370016182827C
:1045E000704700002DE9F0411B4D1C4FA5F1300430
:1045F00095F9000094F904104FF48066884216D1B2
:1046000095F9010094F90510884210D1FDF720FFBB
:10461000A169401AB0F57A7F09D331463846FDF7D3
:104620000AFFFDF715FFA0616078401C607095F9E6
:10463000000094F90410884205D195F9010094F91D
:104640000510884206D031463846BDE8F0410022C8
:10465000FDF7F9BEBDE8F0814400002000080140EC
:10466000810705D16421B0FBF1F201FB120141B9D0
:104670004FF4C871B0FBF1F201FB120008B1002049
:10468000704701207047000070B5114C002541F2C1
:1046900088362078092810D2DFE800F0050B0B0FD0
:1046A0000B0B0B10100000F02DF8BDE87040FFF769
:1046B00099BF00F0CBFA03E0257070BDFFF71CFE38
:1046C000FDF7C6FEE168401AB042F5D270BD0000A9
:1046D0001400002010B5044601462722074800F0C8
:1046E000ADF8204600F0D2F9092000F005FA044C9C
:1046F0002071082000F000FA607110BDEC0100206C
:104700001400002010B500F0A3FBFDF7A1FE064C3D
:10471000E169401AB0F5FA7F04D300F099FBFDF788
:1047200097FEE06110BD00001400002000B50D28C8
:1047300012D2DFE800F011070B0709070907070984
:10474000070907001F2000BD1E2000BD0846FFF717
:1047500087FF08B11D2000BD1C2000BD10B50F4C07
:10476000E079002819D0E06A6421484340F6FF71DF
:10477000B0FBF1F080B2608141082181C2B200211A
:10478000074800F05BF92089202801D3012000E0D0
:104790000020BDE8104000F049BA10BD1400002010
:1047A0000001002010B5154CA079012802D1144851
:1047B00000F036F8A07900281FD1206910B9104800
:1047C00000F020F86069012807D10D4800F028F8B2
:1047D000FDF73EFE206100206061FDF739FE216992
:1047E000401A41F28831884207D36069002804D119
:1047F000BDE81040024800F005B810BD14000020CC
:10480000EC01002038B50021417264210091446818
:10481000017800F1090201232046FEF705F838BDB2
:1048200038B508214172642100914468017800F193
:10483000090201232046FDF7F7FF38BD10B50446F5
:10484000416050002070207A332140F00400207233
:10485000204600F041F83221204600F03DF80520C6
:10486000FDF7E2FC0121204600F036F80520FDF7B7
:10487000DBFC0C21204600F02FF80520FDF7D4FCCE
:104880000221204600F028F80520FDF7CDFC80210C
:10489000204600F021F8204600F072F808206072EF
:1048A00010BD0FB4F0B585B007460CAA68460B9949
:1048B000FBF7E0FCC5B200246E4605E0315D3846EA
:1048C00000F02AF8641CE4B2AC4201D2102CF5D3FB
:1048D00005B0F0BC5DF814FB1CB501F0F002437AA2
:1048E00042F004041C438DF8044013438DF8053056
:1048F0000901427A41F004031A438DF80620427AF6
:1049000004230A438DF80720642100910178406850
:1049100001AAFDF789FF1CBD1CB501F0F002437A26
:1049200042F005041C4342F001028DF80440134399
:104930008DF805300901427A41F005031A438DF8DC
:104940000620427A41F001010A438DF807206421D4
:10495000009101784068042301AAFDF765FF1CBDA2
:1049600008B506A31B6800931DF801101144C9B2D5
:1049700041F08001FFF7B0FF08BD00000040145473
:10498000017A21F00101017241F00801FFF7A4BF93
:10499000FEF716F8FFF7EAF9FFF736F9244823493E
:1049A000002401602349C0E901144FF48041C0E9AB
:1049B000034144618461C4610462FDF74FFD08B1A5
:1049C00072B6FEE7FFF7D0F819481B499C3001602A
:1049D0004FF41651C0E901140C21C460C0E9044130
:1049E0008461C461FEF772FE08B172B6FEE7FFF79C
:1049F000E3F8FFF75FF90E48FFF76CFEFFF776FD6F
:104A00000B486038FDF73AFB0949303901F1840061
:104A1000FFF79EF9FFF75AFDFFF7C4FEFFF734FEDC
:104A2000FFF7E0FDFFF79AFEF4E7000000540040B6
:104A3000AC000020A08601000048004010B50368CB
:104A4000D86A642480B251B104290DD0082910D04D
:104A50000C2903D15043B0FBF4F0186410BD50434F
:104A6000B0FBF4F0586310BD5043B0FBF4F0986312
:104A700010BD5043B0FBF4F0D86310BD10B5FDF786
:104A8000E7FC0149C86010BD14000020014908601E
:104A9000704700001000002090F904108AB290F9CD
:104AA000051090F9060089B200F5FA6080B203297A
:104AB00003D20346401E80B200E0831E1A44C1EBBD
:104AC000C10303EB01110923B1FBF3F192B21144CD
:104AD0006422B0FBF2F201EB9001891A4FF4C87224
:104AE000B0FBF2F008440721001D90FBF1F201FB3E
:104AF0001200C0B27047000031B582B0094D642485
:104B00000094012302AAD0212868FDF78DFE0094AD
:104B1000012301AAD0212868FDF764FD9DF8040057
:104B20003EBD0000100000207FB504461B4E002053
:104B300064258DF80C000095012303AAD02130686C
:104B4000FDF772FE0095072301AAD0213068FDF71A
:104B500049FD9DF80400FDF783F8A0709DF805005D
:104B6000FDF77EF860709DF80600FDF779F820707B
:104B70009DF80700FDF774F8E0709DF80800FDF758
:104B80006FF820719DF80900FDF76AF860719DF8D3
:104B90000A00FDF765F8A0717FBD0000100000203D
:104BA0001CB502238DF804006420009004488DF8A1
:104BB000051001AAD0210068FDF736FE1CBD0000DB
:104BC000100000200EB5034600208DF804009878F0
:104BD000FDF751F88DF805005878FDF74CF88DF881
:104BE00006001878FDF747F88DF80700D878FDF72C
:104BF00042F88DF808001879FDF73DF88DF80900A6
:104C00005879FDF738F88DF80A009879FDF733F8F0
:104C10008DF80B00642000900348082301AAD021DE
:104C20000068FDF701FE0EBD1000002010B5064C17
:104C3000024610212046FDF706FC20460022BDE872
:104C400010402021FDF7FFBB0008014030B58BB0BC
:104C5000FDF7FEFB394C216A401AB0F5967F6BD305
:104C6000A078A0B30020A07034483030FFF75CFF7C
:104C700032483030FFF710FF304D00EB4000303548
:104C800095F9022095F90110CDE900122C4995F90A
:104C9000003042182BA106A8FBF7FEFA218995F9EE
:104CA0000600CDE9000195F9053095F904202AA107
:104CB00002A8FBF7F1FAA07838B321782020072961
:104CC00023D2DFE801F022060B2210151A00012082
:104CD000C9E78DF81C008DF81B0016E08DF81F0049
:104CE0008DF81E0011E08DF809008DF808000CE029
:104CF0008DF80C008DF80B0007E08DF811008DF891
:104D00000F008DF810008DF80E0000221146184893
:104D1000FFF726FE06AA17A11548FFF7C2FD0022DD
:104D200001211348FFF71CFE02AA12A11048FFF749
:104D3000B8FDFDF78DFB20620BB030BD14000020E4
:104D4000684F0008257320253032643A25303264DC
:104D50003A25303264000000253032642F2530328D
:104D6000642F32302530326420543A2530326400CA
:104D7000EC0100202573000010B590F9004033B11C
:104D8000641C63B203708B4200DD027010BD641EB0
:104D900063B203709342F9DA017010BD1FB5204869
:104DA00020A190F9053090F904206846FBF774FAC9
:104DB000002211461E48FFF7D3FD1EA11C48FFF735
:104DC00070FD052200211A48FFF7CAFD1BA11848F3
:104DD000FFF767FD0A2200211548FFF7C1FD19A161
:104DE0001348FFF75EFD002201211148FFF7B8FDCF
:104DF00010A10F48FFF755FD052201210C48FFF7D0
:104E0000AFFD6A4611A10A48FFF74BFD0A220121B6
:104E10000748FFF7A5FD0BA10548FFF742FD1FBDA1
:104E200014000020253032643A253032640000003E
:104E3000EC0100202020202020000000414C4152A5
:104E40004D0000002020202020202000257300009D
:104E50007CB51948FFF768FE1748FFF71DFE0546A9
:104E6000002211461548FFF77BFD134C94F9021000
:104E700094F90100CDE90001114905EB4500421804
:104E800094F900300FA10D48FFF70BFD002201211E
:104E90000A48FFF765FDA4F13000018994F9060086
:104EA000CDE9000194F9053094F904200AA10348E2
:104EB000FFF7F7FC7CBD000044000020EC0100205F
:104EC000684F0008257320253032643A253032645B
:104ED0003A25303264000000253032642F2530320C
:104EE000642F32302530326420543A253032640049
:104EF00010B500290AD00878002807D00548784462
:104F0000FCF726FA002801D0002010BD02487844A2
:104F100010BD00009E0100009601000010B50029A0
:104F20000AD00878002807D005487844FCF710FA22
:104F3000002801D0002010BD0248784410BD0000B8
:104F40008E01000086010000FBF726BEFBF75ABF6A
:104F50000000000000000000010203040607080929
:104F600000000000010203045355004D4F0054554A
:104F700000574500544800465200534100040000C9
:104F80000800000000000000020001000010000006
:104F90000000000000000000303132333435363775
:104FA000383941424344454640305800303132336D
:104FB000343536373839616263646566403078006D
:104FC000303132333435363738396162636465667F
:104FD0007870003031323334353637383941424316
:104FE000444546585000000002400000000000A068
:104FF0000000000005400000000000C800000000A4
:105000000C4000000000409C00000000194000001F
:105010000020BCBE0000000034400000BFC91B8E51
:1050200000000004B5400000504BCFD06607E2CF2F
:10503000010000006C4100003E8251AADFEEA7345F
:1050400001000000D9420000DCB5A0E23A301F9711
:10505000FFFFFFFFB4450000FD25A0C8E9A3C14F35
:10506000FFFFFFFFFF3F0000000000800000000086
:10507000FF3F00000000008000000000C851000851
:10508000000000204C000000280100081452000815
:105090004C0000200C080000440100081C00000027
:1050A00043000000F8FFFFFF0C0000000E000000AE
:1050B0000F0000002E00000010010000430000005F
:1050C000F8FFFFFF00404040404040404040414129
:1050D00041414140404040404040404040404040CD
:1050E0004040404040050202020202020202020267
:1050F0000202020202202020202020202020200264
:1051000002020202020290909090909010101010F3
:10511000101010101010101010101010101010108F
:105120000202020202028888888888880808080823
:1051300008080808080808080808080808080808EF
:105140000202020240000000000000000000000017
:10515000000000000000000000000000000000004F
:10516000000000000000000000000000000000003F
:10517000000000000000000000000000000000002F
:10518000000000000000000000000000000000001F
:10519000000000000000000000000000000000000F
:1051A00000000000000000000000000000000000FF
:1051B00000000000000000000000000000000000EF
:1051C00000000000000000000100000010000000CE
:1051D000000000000024F4000000000000000101B5
:1051E00000000000000000000000000000000000BF
:1051F00000000000000000000000000000000000AF
:10520000000000000000000000000000000000009E
:04521000000000009A
:04000005080000ED02
:00000001FF
